:020000040000fa
:080000000002040000000000f2
:020000040000fa
:0400080006030000eb
:020000040000fa
:04000c0048030000a5
:020000040000fa
:040010008803000061
:020000040000fa
:0400140026030000bf
:020000040000fa
:040018006803000079
:020000040000fa
:04001c007404000068
:020000040000fa
:04002000a803000031
:020000040000fa
:040024007404000060
:020000040000fa
:04002800740400005c
:020000040000fa
:04002c0002040000ca
:020000040000fa
:040030007404000054
:020000040000fa
:040034007404000050
:020000040000fa
:04003800740400004c
:020000040000fa
:04003c007404000048
:020000040000fa
:040040007404000044
:020000040000fa
:040044007404000040
:020000040000fa
:04004800740400003c
:020000040000fa
:04004c007404000038
:020000040000fa
:040050007404000034
:020000040000fa
:040054007404000030
:020000040000fa
:04005800740400002c
:020000040000fa
:04005c007404000028
:020000040000fa
:040060007404000024
:020000040000fa
:040064007404000020
:020000040000fa
:04006800740400001c
:020000040000fa
:04006c007404000018
:020000040000fa
:040070007404000014
:020000040000fa
:040074007404000010
:020000040000fa
:04007800740400000c
:020000040000fa
:04007c007404000008
:020000040000fa
:040080007404000004
:020000040000fa
:040084007404000000
:020000040000fa
:0400880074040000fc
:020000040000fa
:04008c0074040000f8
:020000040000fa
:0400900074040000f4
:020000040000fa
:0400940074040000f0
:020000040000fa
:0400980074040000ec
:020000040000fa
:04009c0074040000e8
:020000040000fa
:0400a00074040000e4
:020000040000fa
:0400a40074040000e0
:020000040000fa
:0400a80074040000dc
:020000040000fa
:0400ac0074040000d8
:020000040000fa
:0400b00074040000d4
:020000040000fa
:0400b40074040000d0
:020000040000fa
:0400b80074040000cc
:020000040000fa
:0400bc0074040000c8
:020000040000fa
:0400c00074040000c4
:020000040000fa
:0400c40074040000c0
:020000040000fa
:0400c80074040000bc
:020000040000fa
:0400cc0074040000b8
:020000040000fa
:0400d00074040000b4
:020000040000fa
:0400d40074040000b0
:020000040000fa
:0400d80074040000ac
:020000040000fa
:0400dc0074040000a8
:020000040000fa
:0400e00074040000a4
:020000040000fa
:0400e40074040000a0
:020000040000fa
:0400e800740400009c
:020000040000fa
:0400ec007404000098
:020000040000fa
:0400f0007404000094
:020000040000fa
:0400f4007404000090
:020000040000fa
:0400f800740400008c
:020000040000fa
:0400fc007404000088
:020000040000fa
:040100007404000083
:020000040000fa
:04010400740400007f
:020000040000fa
:04010800740400007b
:020000040000fa
:04010c007404000077
:020000040000fa
:040110007404000073
:020000040000fa
:04011400740400006f
:020000040000fa
:04011800740400006b
:020000040000fa
:04011c007404000067
:020000040000fa
:040120007404000063
:020000040000fa
:04012400740400005f
:020000040000fa
:04012800740400005b
:020000040000fa
:04012c007404000057
:020000040000fa
:040130007404000053
:020000040000fa
:04013400740400004f
:020000040000fa
:04013800740400004b
:020000040000fa
:04013c007404000047
:020000040000fa
:040140007404000043
:020000040000fa
:04014400740400003f
:020000040000fa
:04014800740400003b
:020000040000fa
:04014c007404000037
:020000040000fa
:040150007404000033
:020000040000fa
:04015400740400002f
:020000040000fa
:04015800740400002b
:020000040000fa
:04015c007404000027
:020000040000fa
:040160007404000023
:020000040000fa
:04016400740400001f
:020000040000fa
:04016800740400001b
:020000040000fa
:04016c007404000017
:020000040000fa
:040170007404000013
:020000040000fa
:04017400740400000f
:020000040000fa
:04017800740400000b
:020000040000fa
:04017c007404000007
:020000040000fa
:040180007404000003
:020000040000fa
:0401840074040000ff
:020000040000fa
:0401880074040000fb
:020000040000fa
:04018c0074040000f7
:020000040000fa
:0401900074040000f3
:020000040000fa
:0401940074040000ef
:020000040000fa
:0401980074040000eb
:020000040000fa
:04019c0074040000e7
:020000040000fa
:0401a00074040000e3
:020000040000fa
:0401a40074040000df
:020000040000fa
:0401a80074040000db
:020000040000fa
:0401ac0074040000d7
:020000040000fa
:0401b00074040000d3
:020000040000fa
:0401b40074040000cf
:020000040000fa
:0401b80074040000cb
:020000040000fa
:0401bc0074040000c7
:020000040000fa
:0401c00074040000c3
:020000040000fa
:0401c40074040000bf
:020000040000fa
:0401c80074040000bb
:020000040000fa
:0401cc0074040000b7
:020000040000fa
:0401d00074040000b3
:020000040000fa
:0401d40074040000af
:020000040000fa
:0401d80074040000ab
:020000040000fa
:0401dc0074040000a7
:020000040000fa
:0401e00074040000a3
:020000040000fa
:0401e400740400009f
:020000040000fa
:0401e800740400009b
:020000040000fa
:0401ec007404000097
:020000040000fa
:0401f00038040000cf
:020000040000fa
:0401f400740400008f
:020000040000fa
:0401f800740400008b
:020000040000fa
:0401fc007404000087
:020000040000fa
:040200007404000082
:020000040000fa
:04020400740400007e
:020000040000fa
:04020800740400007a
:020000040000fa
:04020c007404000076
:020000040000fa
:040210007404000072
:020000040000fa
:04021400740400006e
:020000040000fa
:04021800740400006a
:020000040000fa
:04021c007404000066
:020000040000fa
:040220007404000062
:020000040000fa
:04022400740400005e
:020000040000fa
:04022800740400005a
:020000040000fa
:04022c007404000056
:020000040000fa
:040230007404000052
:020000040000fa
:04023400740400004e
:020000040000fa
:04023800740400004a
:020000040000fa
:04023c007404000046
:020000040000fa
:040240007404000042
:020000040000fa
:04024400740400003e
:020000040000fa
:04024800740400003a
:020000040000fa
:04024c007404000036
:020000040000fa
:040250007404000032
:020000040000fa
:04025400740400002e
:020000040000fa
:04025800740400002a
:020000040000fa
:04025c007404000026
:020000040000fa
:040260007404000022
:020000040000fa
:04026400740400001e
:020000040000fa
:04026800740400001a
:020000040000fa
:04026c007404000016
:020000040000fa
:040270007404000012
:020000040000fa
:04027400740400000e
:020000040000fa
:04027800740400000a
:020000040000fa
:04027c007404000006
:020000040000fa
:040280007404000002
:020000040000fa
:0402840074040000fe
:020000040000fa
:0402880074040000fa
:020000040000fa
:04028c0074040000f6
:020000040000fa
:0402900074040000f2
:020000040000fa
:0402940074040000ee
:020000040000fa
:0402980074040000ea
:020000040000fa
:04029c0074040000e6
:020000040000fa
:0402a00074040000e2
:020000040000fa
:0402a40074040000de
:020000040000fa
:0402a80074040000da
:020000040000fa
:0402ac0074040000d6
:020000040000fa
:0402b00074040000d2
:020000040000fa
:0402b40074040000ce
:020000040000fa
:0402b80074040000ca
:020000040000fa
:0402bc0074040000c6
:020000040000fa
:0402c00074040000c2
:020000040000fa
:0402c40074040000be
:020000040000fa
:0402c80074040000ba
:020000040000fa
:0402cc0074040000b6
:020000040000fa
:0402d00074040000b2
:020000040000fa
:0402d40074040000ae
:020000040000fa
:0402d80074040000aa
:020000040000fa
:0402dc0074040000a6
:020000040000fa
:0402e00074040000a2
:020000040000fa
:0402e400740400009e
:020000040000fa
:0402e800740400009a
:020000040000fa
:0402ec007404000096
:020000040000fa
:0402f0007404000092
:020000040000fa
:0402f400740400008e
:020000040000fa
:0402f800740400008a
:020000040000fa
:0402fc007404000086
:020000040000fa
:040300007404000081
:020000040000fa
:04030400740400007d
:020000040000fa
:040308007404000079
:020000040000fa
:04030c007404000075
:020000040000fa
:040310007404000071
:020000040000fa
:04031400740400006d
:020000040000fa
:040318007404000069
:020000040000fa
:04031c007404000065
:020000040000fa
:040320007404000061
:020000040000fa
:04032400740400005d
:020000040000fa
:040328007404000059
:020000040000fa
:04032c007404000055
:020000040000fa
:040330007404000051
:020000040000fa
:04033400740400004d
:020000040000fa
:10040000af0221000eff26000e0188000000000050
:10041000000020000000e000020032000001200087
:100420002002880014000700310107000000e000ee
:1004300003003a00c0a8200001002000020037009d
:100440000000200001002000810f70000100320038
:100450000f000700000020000000e0000200320052
:100460000000020000000000e00a0200000000009e
:100470000040da000000fe00200020000000e00044
:1004800002003200100020009001880000000600e9
:10049000a1028800800478000000eb001f003700f4
:1004a000e284440054a0b4009905ba00e2844400f8
:1004b00054a0b4009906ba00e284440054a0b400e9
:1004c0000006eb00476fde00fd07b200ae018800ba
:1004d000636ce10003003a000ad801000000eb0061
:1004e0000e003700606ce10008003a00004deb00a0
:1004f0000a05e800020039003420ec000af0a000f0
:100500008b05e900f9ff3e00040037006168e10057
:10051000010032000086eb000b00070019c7ba008b
:100520001905ba000e04e00003003a000a00e000da
:10053000dbff3a0000000600fe07b200ae028800b2
:100540008a047800f5ff37000cd0a300e20f4d00bd
:100550001c00390089027800354dba000a05e80010
:10056000020039003420ec000af0a0008b05e900fd
:100570000f003200254dba000a05e80002003900dc
:100580003420ec000af0a0008b05e90008003200de
:100590000c00e0000600320015cdba000a05e800a4
:1005a000020039003420ec000af0a0008b05e900bd
:1005b0008984e80054a0b4000b00e000e2ff3a0098
:1005c000000006009902ba00055d78008b05e9007d
:1005d000f7ff3200c82ade00055d78008b05e900d0
:1005e000f3ff32000c00e000f1ff320019ddba0029
:1005f000eeff37001c090400000000006405040041
:100600000000000092050400000000003600f80021
:10061000809fbe00829fbe00849fbe00869fbe005a
:100620000000fa00c028a9000000eb00d803070072
:100630000080fa004f03be004f02be004f01be0013
:100640004f00be003600f900004006003600f800fa
:10065000809fbe00829fbe00849fbe00869fbe001a
:100660000000fa00cf030700c048a90010002000d6
:10067000c70307000080fa004f03be004f02be0010
:100680004f01be004f00be003600f90000400600da
:100690003600f800809fbe00829fbe00849fbe008f
:1006a000869fbe000000fa00c068a900200020005c
:1006b000b70307000080fa004f03be004f02be00e0
:1006c0004f01be004f00be003600f900004006009a
:1006d0003600f800809fbe00829fbe00849fbe004f
:1006e000869fbe000000fa00c088a90030002000ec
:1006f000a70307000080fa004f03be004f02be00b0
:100700004f01be004f00be003600f9000040060059
:100710003600f800809fbe00829fbe00849fbe000e
:10072000869fbe000000fa00c608a90070002000e5
:10073000970307000080fa004f03be004f02be007f
:100740004f01be004f00be003600f9000040060019
:100750003600f800809fbe00829fbe00849fbe00ce
:10076000869fbe000000fa00214680000010200095
:10077000008060000000e00003003200c508a9000e
:10078000c0002000820307002146800000002800ee
:10079000008060000000e00003003200c5e8a9000e
:1007a000800020007a03070021468000000220001c
:1007b000008060000000e00003003200c4a8a9002f
:1007c0009000200072030700204680007000600047
:1007d0000000e00003003200c488a900a00020004f
:1007e0006b03070020468000610060000000e0000d
:1007f00003003200c408a900b00020006403070011
:10080000ffff37003600f800809fbe00829fbe00c9
:10081000849fbe00869fbe000000fa0030808000ea
:100820000000e00002003200308080000000010083
:1008300090022100104078008040e80090022100e2
:10084000014878008002210011c0b30001487800ff
:100850000028a9000080fa004f03be004f02be002e
:100860004f01be004f00be003600f90000400600f8
:100870003600f800809fbe00829fbe00849fbe00ad
:10088000869fbe003200f8003400f80010002000ff
:10089000a001880010002000900188000200fa00ea
:1008a000d1618000010f7800108080000000e0001e
:1008b00003003200118080001e007800010001005a
:1008c0000e48a9000080fa003400f9003200f90057
:1008d0004f03be004f02be004f01be004f00be00de
:1008e0003600f900004006000040da000000fe007b
:0408f00000000500ff
:020000040000fa
:1008f4000000fa00002bef000006200010588800ca
:10090400042bef00062bef00082bef000a2bef005f
:100914000c2bef000e2bef00102bef00122bef002f
:10092400142bef00162bef00202bef000008200003
:1009340010598800382bef00402bef00482bef00b4
:10094400502bef003a2bef00422bef004a2bef0025
:10095400522bef003c2bef00442bef004c2bef000d
:10096400542bef003e2bef00462bef004e2bef00f5
:10097400562bef0000402000505b88000040200010
:10098400705b880000402000905b880000402000dd
:10099400b05b8800a02bef00a42bef00a82bef0086
:1009a400ac2bef00d02bef00d22bef00d42bef00b9
:1009b400d82bef0000302000b05e8800003020000b
:1009c400d05e8800f02bef00f22bef00022cef003a
:1009d400405620003e0007002059200093000700e5
:1009e4000e48a9002e48a8001160800000f02000e5
:1009f400010070001060880001eba80026000700c9
:100a0400802bef00822bef00842bef00862bef006e
:100a1400882bef008a2bef008c2bef008e2bef003e
:100a2400902bef00922bef00942bef00006020003e
:100a3400b05c8800982bef000080fa0000000600ec
:100a44000000fa00000ca800000000000160800013
:100a540000102000008060000000e000fbff320076
:100a64000a0ba8000080fa00000006000000fa004b
:100a7400002ca8000000000001608000002020007d
:100a8400008060000000e000fbff32000a2ba80099
:100a94000080fa00000006000000fa0000eca80044
:100aa4000000000001608000000028000080600059
:100ab4000000e000fbff32000aeba8000080fa000f
:100ac400000006000000fa000080fa0000000600a2
:100ad4000200fa00000f78001e00780000808800f1
:100ae4000080fa00000006000000fa005140800077
:100af40000402000008060000000e000060032009a
:100b0400008080000000e0000200320000808000cd
:100b1400000001000b48a9000080fa000000060054
:100b24000c00fa0030079800b073800055800a006a
:100b3400000000000004a200614060000080fb008f
:100b4400610060004500dd00b17380000150a10028
:100b540001007000b07388000000eb00000f780003
:100b64000000eb00100798000000eb00200798003d
:100b74003e009000214e20000100b8004609dd002f
:100b84004a00de0000007100ca08de008000780020
:100b940070382100008f4000f07022009e00780021
:100ba400808f500002003600f0702200000f7800a1
:100bb400603821009e007800808f500002003e00c3
:100bc40070382100000f78001e0078000000d1006a
:100bd40010079800500020009e027800002ab800f8
:100be4004407980055079800420620004e029000e2
:100bf400de0290000500090042aad80020079800f0
:100c04009e027800951a88009e009000711a880050
:100c14002e019000d21a8800ae019000e31a8800d9
:100c24002e63a8000080fa00000006000200fa000b
:100c3400000f78001e007800108088000080fa0001
:100c4400000006000000fa003000200000188800b0
:100c54000223ef000423ef000623ef000823ef0034
:100c640000012000501888000c23ef000e23ef0031
:100c74001023ef001223ef001423ef001623ef00dc
:100c84001823ef001a23ef001c23ef001e23ef00ac
:100c94002023ef002223ef002423ef002623ef007c
:100ca4002823ef002c23ef006223ef002e23ef0014
:100cb4006423ef003023ef006623ef00c000200020
:100cc40090198800c0002000401b88003423ef00e6
:100cd40090102000501b88003623ef006c23ef0097
:100ce4003823ef006e23ef003a23ef007023ef0068
:100cf4003c23ef007223ef003e23ef007423ef0048
:100d04004023ef007623ef004223ef007823ef0027
:100d14004423ef007a23ef004623ef007c23ef0007
:100d24004823ef007e23ef004a23ef008023ef00e7
:100d34004c23ef008223ef00204e2000701a88001d
:100d4400801a2600201c88005023ef008623ef0021
:100d540070382100901a8800f0342c00401c880060
:100d64005423ef008a23ef005623ef008c23ef0077
:100d74005823ef008e23ef00d0072000d01a8800fc
:100d8400d0072000801c8800d0072000e01a8800cb
:100d9400d0072000901c8800000000008b01070091
:100da4000004a2000004e000fcff3a0080002800d8
:100db4005019880080002800001b88000080fa0079
:100dc400000006000000fa000080fa00000006009f
:100dd4000000fa0040408000680060000000e0006d
:100de40002003200f7ff07000868a9000080fa003b
:100df400000006000000fa000080fa00000006006f
:100e04000000fa0040408000700060000000e00034
:100e140002003200f7ff07000888a9000080fa00ea
:100e2400000006000000fa000080fa00000006003e
:100e34000000fa00a1408000002020000080600033
:100e44000000e00002003200f6ff07001528a900a8
:100e54000080fa00000006000000fa000080fa009a
:100e6400000006000000fa00a140800000402000bd
:100e7400008060000000e00002003200f6ff07007e
:100e84001548a9000080fa00000006000000fa00de
:100e94000080fa00000006000000fa00a140800073
:100ea40000802000008060000000e00002003200aa
:100eb400f6ff07001568a9000080fa00000006008c
:100ec4000000fa000080fa00000006000000fa00aa
:100ed400a140800000002100008060000000e000cc
:100ee40002003200f6ff07001588a9000080fa000e
:100ef400000006000000fa000080fa00000006006e
:100f04000000fa00a1408000000022000080600080
:100f14000000e00002003200f6ff070015a8a90057
:100f24000080fa00000006000000fa000080fa00c9
:100f3400000006000000fa00a14080000000240028
:100f4400008060000000e00002003200f6ff0700ad
:100f540015c8a9000080fa00000006000000fa008d
:100f6400007c80000080fa00000006000200fa0005
:100f7400faff0700000f78001e0078002400070025
:100f84000004e000020032000000280071000700a5
:100f94001e0078002a0007000004e000020032006e
:100fa400000024006b0007001e00780032000700d8
:100fb4000004e00002003200002020006500070069
:100fc4001e0078003a0007000004e000020032002e
:100fd400000820005f0007001e00780042000700a0
:100fe4000004e00002003200000420005900070061
:100ff4001e0078004a0007000004e00002003200ee
:1010040000012000530007000080fa0000000600e1
:101014000400fa00100798000040eb00004f78002d
:101024001e0090000000e00002003d0010c0b3006c
:10103400004f78001e4078000080fa00000006008f
:101044000400fa00100798000040eb00004f7800fd
:101054009e00900000002400008060000000e0007a
:101064000200320010c0b300004f78001e40780028
:101074000080fa00000006000400fa00100798003f
:101084000040eb00004f78009e00900000202000fc
:10109400008060000000e0000200320010c0b300d5
:1010a400004f78001e4078000080fa00000006001f
:1010b4000400fa00100798000040eb00004f78008d
:1010c4009e00900000082000008060000000e00006
:1010d4000200320010c0b300004f78001e407800b8
:1010e4000080fa00000006000400fa0010079800cf
:1010f4000040eb00004f78009e00900000042000a8
:10110400008060000000e0000200320010c0b30064
:10111400004f78001e4078000080fa0000000600ae
:101124000400fa00100798000040eb00004f78001c
:101134001e009000700060000000e0000200320019
:1011440010c0b300004f78001e4078000080fa0001
:10115400000006000200fa00000f78009e80ea00fa
:10116400007c800000806000007c88000080fa0021
:10117400000006000000fa00802fef000080fa0053
:10118400000006000000fa000421ef00300d2300e7
:101194004008880000012800000888003080800092
:1011a4000000e00002003a00c09120002400070083
:1011b4000028a9002028a800800221008040eb001c
:1011c400014878000080fa00000006000200fa00de
:1011d400000f78009e0078004108880080022100fa
:1011e4008040eb00014878000080fa00000006000f
:1011f4000000fa00400880000080fa0000000600a9
:101204000200fa00000f78009e0078002108880090
:10121400800221008040eb00014878000080fa0041
:10122400000006000000fa00200880000080fa0098
:10123400000006000000fa000080fa00000006002a
:101244000200fa00000f78002028a9009e00780010
:10125400318088002028a8000080fa0000000600e1
:101264000000fa00800221008040eb000148780071
:101274002028a80001e1a8000080fa000000060070
:101284000000fa0001e1a9002028a9000080fa006a
:10129400000006000200fa0080022100104f7800ce
:1012a4001e4078000004e0000300320080022100a8
:1012b4008040eb00014878001e4078000080fa006e
:1012c400000006000000fa0090022100104078009f
:1012d4000080fb000080fa00000006000000fa0015
:1012e400900221008040eb00014878000080fa0061
:1012f400000006000000fa0010002300307c880083
:10130400800c2000407c88008c2fef00100420000b
:10131400507c880010102800707c8800d0072000c2
:10132400807c880010022000907c88009a2fef00b7
:10133400b82fef00ba2fef00be2fef00002def0003
:10134400a02fef00a42fef00a62fef00a82fef008f
:10135400aa2fef00ae2fef00b02fef00b22fef0057
:101364001200200080072000a109200053f820006b
:101374008049780081497800824978001200200071
:10138400600420007105200043f8200080497800a3
:10139400814978008249780000000000207c8000a8
:1013a400610060000000e000fcff3a000000000063
:1013b400217c800000022000008060000000e0002a
:1013c400fbff32000080fa00000006000000fa0073
:1013d400707c8000ee800a00000000000080fb00aa
:1013e40000f0a7000000ea000000ea004f00de0061
:1013f400004078000080fa00000006000000fa00b7
:10140400062eef00222eef003e2eef005a2eef00a4
:10141400762eef00f001200010708800d0ff20002d
:10142400f07088000080eb00d07188000080eb0031
:10143400b0728800f0f92f00907388000c2eef0032
:10144400282eef00442eef00602eef007c2eef00dc
:101454000a2eef00262eef00422eef005e2eef0044
:101464007a2eef00082eef00242eef00402eef001e
:101474005c2eef00782eef00f00120000070880051
:10148400d0392000e0708800f00c2000c071880082
:1014940000c02200a0728800f00020008073880041
:1014a4000080fa00000006000200fa00000f780035
:1014b40021028000200f2000008060001e007000c8
:1014c400200288000080fa00000006000000fa00f4
:1014d400c3e8a80000000000000000000080fa003b
:1014e400000006000000fa00c4ff070081ff0700a7
:1014f40019000700fefc0700d2fd070021ff0700ca
:10150400f2ff070000022000e7ff07000080fa0056
:0415140000000600cd
:020000040000fa
:1015180008100000200000008000000004100000f7
:101528000200000082000000ffff000028100000f9
:101538000200000080000000061000000200000009
:10154800800000000010000004000000800000007f
:04155800000000008f
:020000040000fa
:10155c000000fa0001428000f0f82f0000806000cb
:10156c000040a00000428800c1438000f08f2f0093
:10157c00008060000080a000c04388000080fa005a
:10158c00000006000200fa00000f78009e007800b0
:10159c0021808800ffff37000000fa008000210046
:1015ac008007780000022100000188000080fa000a
:1015bc00000006000000fa00c8ff0700ffff37001c
:020000040000fa
:020000040005f5
:047e0000ffff000080
:020000040000fa
:020000040005f5
:047e2000ffffff0061
:020000040000fa
:020000040005f5
:047e300078ffff00d8
:020000040000fa
:020000040005f5
:047e38003fffff0009
:020000040000fa
:020000040005f5
:047e40006003ff00dc
:020000040000fa
:020000040005f5
:047e4800ffffff0039
:020000040000fa
:020000040005f5
:047e5000ddffff0053
:020000040000fa
:020000040005f5
:047e58000000ff0027
:020000040000fa
:020000040005f5
:047e60000000ff001f
:020000040000fa
:020000040005f5
:047e68000000ff0017
:020000040000fa
:020000040005f5
:047e70000000ff000f
:020000040000fa
:020000040005f5
:047e7800ffffff0009
:020000040000fa
:020000040005f5
:047e8000fffcff0004
:020000040000fa
:020000040005f5
:047e8800ffffff00f9
:020000040000fa
:020000040005f5
:047ff800ffffff0088
:020000040000fa
:020000040100f9
:04300000ffffff00cf
:00000001FF
