:020000040000fa
:080000000002040000000000f2
:020000040000fa
:040008003e030000b3
:020000040000fa
:04000c00800300006d
:020000040000fa
:04001000c003000029
:020000040000fa
:040014005e03000087
:020000040000fa
:04001800a003000041
:020000040000fa
:04001c0036060000a4
:020000040000fa
:04002000e0030000f9
:020000040000fa
:04002400360600009c
:020000040000fa
:040028003606000098
:020000040000fa
:04002c003a04000092
:020000040000fa
:040030003606000090
:020000040000fa
:04003400360600008c
:020000040000fa
:040038003606000088
:020000040000fa
:04003c003606000084
:020000040000fa
:04004000ac0400000c
:020000040000fa
:04004400d4040000e0
:020000040000fa
:040048003606000078
:020000040000fa
:04004c003606000074
:020000040000fa
:040050003606000070
:020000040000fa
:040054005c05000047
:020000040000fa
:04005800fc040000a4
:020000040000fa
:04005c003606000064
:020000040000fa
:040060003606000060
:020000040000fa
:04006400360600005c
:020000040000fa
:040068003606000058
:020000040000fa
:04006c003606000054
:020000040000fa
:040070003606000050
:020000040000fa
:04007400360600004c
:020000040000fa
:040078003606000048
:020000040000fa
:04007c003606000044
:020000040000fa
:040080003606000040
:020000040000fa
:04008400e60500008d
:020000040000fa
:040088000e06000060
:020000040000fa
:04008c003606000034
:020000040000fa
:040090003606000030
:020000040000fa
:04009400360600002c
:020000040000fa
:040098003606000028
:020000040000fa
:04009c003606000024
:020000040000fa
:0400a0003606000020
:020000040000fa
:0400a400360600001c
:020000040000fa
:0400a8003606000018
:020000040000fa
:0400ac003606000014
:020000040000fa
:0400b0003606000010
:020000040000fa
:0400b400360600000c
:020000040000fa
:0400b8003606000008
:020000040000fa
:0400bc003606000004
:020000040000fa
:0400c0003606000000
:020000040000fa
:0400c40036060000fc
:020000040000fa
:0400c80036060000f8
:020000040000fa
:0400cc0036060000f4
:020000040000fa
:0400d00036060000f0
:020000040000fa
:0400d40036060000ec
:020000040000fa
:0400d80036060000e8
:020000040000fa
:0400dc0036060000e4
:020000040000fa
:0400e00036060000e0
:020000040000fa
:0400e40036060000dc
:020000040000fa
:0400e80036060000d8
:020000040000fa
:0400ec00c805000043
:020000040000fa
:0400f00036060000d0
:020000040000fa
:0400f40036060000cc
:020000040000fa
:0400f80036060000c8
:020000040000fa
:0400fc0036060000c4
:020000040000fa
:0401000036060000bf
:020000040000fa
:0401040036060000bb
:020000040000fa
:0401080036060000b7
:020000040000fa
:04010c0036060000b3
:020000040000fa
:0401100036060000af
:020000040000fa
:0401140036060000ab
:020000040000fa
:0401180036060000a7
:020000040000fa
:04011c0036060000a3
:020000040000fa
:04012000360600009f
:020000040000fa
:04012400360600009b
:020000040000fa
:040128003606000097
:020000040000fa
:04012c003606000093
:020000040000fa
:04013000360600008f
:020000040000fa
:04013400360600008b
:020000040000fa
:040138003606000087
:020000040000fa
:04013c003606000083
:020000040000fa
:04014000360600007f
:020000040000fa
:04014400360600007b
:020000040000fa
:040148003606000077
:020000040000fa
:04014c003606000073
:020000040000fa
:04015000360600006f
:020000040000fa
:04015400360600006b
:020000040000fa
:040158003606000067
:020000040000fa
:04015c003606000063
:020000040000fa
:04016000360600005f
:020000040000fa
:04016400360600005b
:020000040000fa
:040168003606000057
:020000040000fa
:04016c003606000053
:020000040000fa
:04017000360600004f
:020000040000fa
:04017400360600004b
:020000040000fa
:040178003606000047
:020000040000fa
:04017c003606000043
:020000040000fa
:04018000360600003f
:020000040000fa
:04018400360600003b
:020000040000fa
:040188003606000037
:020000040000fa
:04018c003606000033
:020000040000fa
:04019000360600002f
:020000040000fa
:04019400360600002b
:020000040000fa
:040198003606000027
:020000040000fa
:04019c003606000023
:020000040000fa
:0401a000360600001f
:020000040000fa
:0401a400360600001b
:020000040000fa
:0401a8003606000017
:020000040000fa
:0401ac003606000013
:020000040000fa
:0401b000360600000f
:020000040000fa
:0401b400360600000b
:020000040000fa
:0401b8003606000007
:020000040000fa
:0401bc003606000003
:020000040000fa
:0401c00036060000ff
:020000040000fa
:0401c40036060000fb
:020000040000fa
:0401c80036060000f7
:020000040000fa
:0401cc0036060000f3
:020000040000fa
:0401d00036060000ef
:020000040000fa
:0401d40036060000eb
:020000040000fa
:0401d80036060000e7
:020000040000fa
:0401dc0036060000e3
:020000040000fa
:0401e00036060000df
:020000040000fa
:0401e40036060000db
:020000040000fa
:0401e80036060000d7
:020000040000fa
:0401ec0036060000d3
:020000040000fa
:0401f0007004000097
:020000040000fa
:0401f40036060000cb
:020000040000fa
:0401f80036060000c7
:020000040000fa
:0401fc0036060000c3
:020000040000fa
:0402000036060000be
:020000040000fa
:0402040036060000ba
:020000040000fa
:0402080036060000b6
:020000040000fa
:04020c0036060000b2
:020000040000fa
:0402100036060000ae
:020000040000fa
:0402140036060000aa
:020000040000fa
:0402180036060000a6
:020000040000fa
:04021c0036060000a2
:020000040000fa
:04022000360600009e
:020000040000fa
:04022400360600009a
:020000040000fa
:040228003606000096
:020000040000fa
:04022c003606000092
:020000040000fa
:04023000360600008e
:020000040000fa
:04023400360600008a
:020000040000fa
:040238003606000086
:020000040000fa
:04023c003606000082
:020000040000fa
:04024000360600007e
:020000040000fa
:04024400360600007a
:020000040000fa
:040248003606000076
:020000040000fa
:04024c003606000072
:020000040000fa
:04025000360600006e
:020000040000fa
:04025400360600006a
:020000040000fa
:040258003606000066
:020000040000fa
:04025c003606000062
:020000040000fa
:04026000360600005e
:020000040000fa
:04026400360600005a
:020000040000fa
:040268003606000056
:020000040000fa
:04026c003606000052
:020000040000fa
:04027000360600004e
:020000040000fa
:04027400360600004a
:020000040000fa
:040278003606000046
:020000040000fa
:04027c003606000042
:020000040000fa
:04028000360600003e
:020000040000fa
:04028400360600003a
:020000040000fa
:040288003606000036
:020000040000fa
:04028c003606000032
:020000040000fa
:04029000360600002e
:020000040000fa
:04029400360600002a
:020000040000fa
:040298003606000026
:020000040000fa
:04029c003606000022
:020000040000fa
:0402a000360600001e
:020000040000fa
:0402a400360600001a
:020000040000fa
:0402a8003606000016
:020000040000fa
:0402ac003606000012
:020000040000fa
:0402b000360600000e
:020000040000fa
:0402b400360600000a
:020000040000fa
:0402b8003606000006
:020000040000fa
:0402bc003606000002
:020000040000fa
:0402c00036060000fe
:020000040000fa
:0402c40036060000fa
:020000040000fa
:0402c80036060000f6
:020000040000fa
:0402cc0036060000f2
:020000040000fa
:0402d00036060000ee
:020000040000fa
:0402d40036060000ea
:020000040000fa
:0402d80036060000e6
:020000040000fa
:0402dc0036060000e2
:020000040000fa
:0402e00036060000de
:020000040000fa
:0402e40036060000da
:020000040000fa
:0402e80036060000d6
:020000040000fa
:0402ec0036060000d2
:020000040000fa
:0402f00036060000ce
:020000040000fa
:0402f40036060000ca
:020000040000fa
:0402f80036060000c6
:020000040000fa
:0402fc0036060000c2
:020000040000fa
:0403000036060000bd
:020000040000fa
:0403040036060000b9
:020000040000fa
:0403080036060000b5
:020000040000fa
:04030c0036060000b1
:020000040000fa
:0403100036060000ad
:020000040000fa
:0403140036060000a9
:020000040000fa
:0403180036060000a5
:020000040000fa
:04031c00de050000fa
:020000040000fa
:04032000360600009d
:020000040000fa
:040324003606000099
:020000040000fa
:040328003606000095
:020000040000fa
:04032c003606000091
:020000040000fa
:04033000360600008d
:020000040000fa
:040334003606000089
:020000040000fa
:10040000ef1821000eff26000e01880000000000fa
:10041000000020000000e000020032000001200087
:100420002002880014000700870207000000e00097
:1004300003003a00e05922000100200002003700ca
:100440000000200001002000810f70000100320038
:100450000f000700000020000000e0000200320052
:100460000000020000000000281902000000000047
:100470000040da000000fe00401120000000e00013
:1004800002003200002020009001880000000600d9
:10049000a1028800800478000000eb001f003700f4
:1004a000e284440054a0b4009905ba00e2844400f8
:1004b00054a0b4009906ba00e284440054a0b400e9
:1004c0000006eb00476fde00fd07b200ae018800ba
:1004d000636ce10003003a000ad801000000eb0061
:1004e0000e003700606ce10008003a00004deb00a0
:1004f0000a05e800020039003420ec000af0a000f0
:100500008b05e900f9ff3e00040037006168e10057
:10051000010032000086eb000b00070019c7ba008b
:100520001905ba000e04e00003003a000a00e000da
:10053000dbff3a0000000600fe07b200ae028800b2
:100540008a047800f5ff37000cd0a300e20f4d00bd
:100550001c00390089027800354dba000a05e80010
:10056000020039003420ec000af0a0008b05e900fd
:100570000f003200254dba000a05e80002003900dc
:100580003420ec000af0a0008b05e90008003200de
:100590000c00e0000600320015cdba000a05e800a4
:1005a000020039003420ec000af0a0008b05e900bd
:1005b0008984e80054a0b4000b00e000e2ff3a0098
:1005c000000006009902ba00055d78008b05e9007d
:1005d000f7ff3200c82ade00055d78008b05e900d0
:1005e000f3ff32000c00e000f1ff320019ddba0029
:1005f000eeff3700021d0400000000002e1d040065
:10060000000000006e1d040000000000581d0400e2
:1006100000000000c61c040000000000e41c0400f0
:1006200000000000a21d040000000000761c040071
:10063000000000003e2904000000000086220400a3
:1006400000000000b422040000000000de1c0400d2
:1006500000000000fc1c040000000000180a040058
:10066000000000000000040000000000540a040024
:1006700000000000800a0400000000003600f800be
:10068000809fbe00829fbe00849fbe00869fbe00ea
:100690000000fa00c028a9000000eb005014070079
:1006a0000080fa004f03be004f02be004f01be00a3
:1006b0004f00be003600f900004006003600f8008a
:1006c000809fbe00829fbe00849fbe00869fbe00aa
:1006d0000000fa0047140700c048a90010002000dd
:1006e0003f1407000080fa004f03be004f02be0017
:1006f0004f01be004f00be003600f900004006006a
:100700003600f800809fbe00829fbe00849fbe001e
:10071000869fbe000000fa00c068a90020002000eb
:100720002f1407000080fa004f03be004f02be00e6
:100730004f01be004f00be003600f9000040060029
:100740003600f800809fbe00829fbe00849fbe00de
:10075000869fbe000000fa00c088a900300020007b
:100760001f1407000080fa004f03be004f02be00b6
:100770004f01be004f00be003600f90000400600e9
:100780003600f800809fbe00829fbe00849fbe009e
:10079000869fbe000000fa00c608a9007000200075
:1007a0000f1407000080fa004f03be004f02be0086
:1007b0004f01be004f00be003600f90000400600a9
:1007c0003600f800809fbe00829fbe00849fbe005e
:1007d000869fbe000000fa00214680000010200025
:1007e000008060000000e00003003200c508a9009e
:1007f000c0002000fa1307002146800000002800f6
:10080000008060000000e00003003200c5e8a9009d
:1008100080002000f2130700214680000002200023
:10082000008060000000e00003003200c4a8a900be
:1008300090002000ea13070020468000700060004e
:100840000000e00003003200c488a900a0002000de
:10085000e313070020468000610060000000e00014
:1008600003003200c408a900b0002000dc13070018
:10087000ffff37003600f800809fbe00829fbe0059
:10088000849fbe00869fbe000000fa005083800057
:100890000000e000020032005083800000000100f0
:1008a00050182100104078008040e80050182100c6
:1008b000014878004018210011c0b30001487800b9
:1008c0000028a9000080fa004f03be004f02be00be
:1008d0004f01be004f00be003600f9000040060088
:1008e0003600f800809fbe00829fbe00849fbe003d
:1008f000869fbe003200f8003400f800100020008f
:10090000a001880000202000900188000200fa0069
:10091000d1618000010f7800808380000000e0003a
:1009200003003200818380001e0078000100010076
:100930000e48a9000080fa003400f9003200f900e6
:100940004f03be004f02be004f01be004f00be006d
:100950003600f900004006003600f800809fbe0017
:10096000829fbe00849fbe00869fbe000000fa00ea
:100970000140800000042000008060000000e000d2
:10098000020032000110070000c8a9000080fa0030
:100990004f03be004f02be004f01be004f00be001d
:1009a0003600f900004006003600f800809fbe00c7
:1009b000829fbe00849fbe00869fbe000000fa009a
:1009c0000140800000082000008060000000e0007e
:1009d000020032003810070000e8a9000080fa0089
:1009e0004f03be004f02be004f01be004f00be00cd
:1009f0003600f900004006003600f800809fbe0077
:100a0000829fbe00849fbe00869fbe000000fa0049
:100a1000b08280000000e00002003200b08280005e
:100a2000000001009182800080828000808f500051
:100a300002003a002188a900180037000188a900a7
:100a40001000370090828000904078008180fb0089
:100a5000411288000000e8009082880091828000a6
:100a600070162100808f500002003a00e01521002e
:100a7000908288009182800080828000808f500068
:100a800005003200f0118000700060000000e000fe
:100a9000ecff320001003700000000000080fa0087
:100aa0004f03be004f02be004f01be004f00be000c
:100ab0003600f900004006003600f800809fbe00b6
:100ac000829fbe00849fbe00869fbe000000fa0089
:100ad000c08280000000e00002003200c08280007e
:100ae000000001000168a9001e003700608280003c
:100af00021128000814078000148780061828000e6
:100b0000f0162100808f50000900320060828000c2
:100b10008000e80070828000808f50000400320066
:100b2000608280000000e800608288000d003700cd
:100b300061828000f0162100808f500007003a008b
:100b40007182800070162100808f500003003200f7
:100b500070162100608288000200370010c0b300c8
:100b600054f0b700f0118000620060000000e00067
:100b7000deff32000080fa004f03be004f02be00cd
:100b80004f01be004f00be003600f90000400600d5
:100b9000801f78000000fa00e01180006200600011
:100ba0000000e000010032003c22a9000628a90054
:100bb0000080fa004f007800004006000000fa00b4
:100bc00017a8a9000080fa00004006003600f800cf
:100bd000809fbe00829fbe00849fbe00869fbe0095
:100be0000000fa0011408000000820000080600032
:100bf0000000e000020032007e10070002e8a900b9
:100c00000080fa004f03be004f02be004f01be003d
:100c10004f00be003600f900004006003600f80024
:100c2000809fbe00829fbe00849fbe00869fbe0044
:100c30000000fa00114080000010200000806000d9
:100c40000000e00002003200b51007000308a90010
:100c50000080fa004f03be004f02be004f01be00ed
:100c60004f00be003600f900004006000040da00e8
:100c70000000fe000a00fa0011002000b1bf9f0032
:100c8000c0bf9f006a805700860707004fb89700d3
:100c90000080fa00000006000a00fa00e20f50008f
:100ca00034003e00508c8000e10f50000300320001
:100cb000e20f500011003a000c003700832320009f
:100cc0000300e00001003a000040da003802e200d0
:100cd000020035004022ef0039e2a80038a2ab0044
:100ce0000d003a0038a2a8000b00370003262000b0
:100cf0000300e00001003a000040da006002e20078
:100d0000020035006822ef0061e2a80060a2ab009b
:100d100001003a0060a2a800820178000b003700b1
:100d20003102fb00e10f500004003a003e82ab00ac
:100d3000feff3a0044128800030037006682ab00d1
:100d4000feff3a00841388008301e9000300e000fd
:100d5000f3ff3a00e10f500003003a003ea2ab005f
:100d6000feff32000b00370066a2ab00feff320030
:100d70000800370033002000b3bf9f00c0bf9f00b2
:100d8000d1bf9f00e2bf9f006a805700470707005e
:100d90006fb99700020078000080fa00000006009a
:100da0000a00fa0051002000b1bf9f00c0bf9f00a1
:100db0006a8057003f0707005fb897000080fa007d
:100dc00000000600889fbe0080047800608c8000d0
:100dd0000000e00004003a000e0007000084eb0071
:100de0000000e00008003500688c80000900e00089
:100df0000500320009004400060007000000e00082
:100e000001003d000084eb00080078004f04be00a4
:100e100000000600800078000100e00003003a00b6
:100e200000002000608c8800000005000080eb00be
:100e300002002000828f500002003e00618c88007a
:100e40000000eb0000000600000005006022b80072
:100e5000060220000000d0008180d2000482d2006f
:100e60008582d2000000a0000202520083825a0054
:100e7000030031000202420083824a000000a10008
:100e80000603e900f3ff3a0000000600efff070049
:100e90000400be0000000600210a21006b000700cc
:100ea000800078000080eb000100e00004003500c5
:100eb000210a2100a0002000020007004f80de0070
:100ec00000000600889fbe008a1f78000004be0054
:100ed000c900900069009000808f50000600390022
:100ee00009007800b8000700800078000080eb005f
:100ef0000100e00017003500084578004900900027
:100f000008587800c00498001900780000b8a300c1
:100f100004003a0000a8a30008003200ea4f540081
:100f200006003a00090078000d00070080007800f4
:100f30000080eb000100e00006003a0000c0200045
:100f4000190060000200320049009000e00498009f
:100f50000a80fb004f0578004f04be000000060029
:100f6000889fbe008a1f7800000478000800e00017
:100f70000d003a00080f2100700544008004eb00ca
:100f8000580078000000e00004003200f4ff070081
:100f90000000e00001003d008084eb008a0f540057
:100fa000f7ff3a002500370000002200180060001b
:100fb0008004eb0021003200a80490000f003700ed
:100fc00009015100384090000000fb0089007800c2
:100fd00031ff07000000e00007003c0028009000ff
:100fe0004004980060049800500c98001890a000ed
:100ff0008084eb0011003700808444004801900099
:10100000828f5400eeff39002800900040049800c1
:101010009800780002c020000281600001003a00c0
:101020003800900001e8a30002003200600498003c
:1010300001003700500c98008004eb000900780094
:101040004f0578004f04be0000000600889fbe00d8
:101050008a9fbe0080047800010478002c003700cd
:10106000c800900068009000808f50000400390094
:1010700008007800540007000000e0003700350049
:10108000004020001800600009003200a10020008c
:101090000900780042000700800578000b00e0009e
:1010a00003003200618514000a8545000400370002
:1010b0000900780034000700000578008005eb0087
:1010c00048009000e8009000808050008a8f500017
:1010d00002003100010578008005eb000a0178006c
:1010e0008900780021000700480090000a004000b5
:1010f000400498000b00e000040032000800780073
:1011000097ff07000000e00014003a008a844400c2
:101110001904e000d2ff3a000080200018006000af
:1011200006003200080078008dff0700800078007c
:101130000080eb000100e00009003a0001c020003f
:10114000988060000000eb0005003200480090002d
:10115000600498000000eb00010037000080eb0005
:101160004f05be004f04be0000000600800178005d
:1011700002003700b15978000201e9000200e000e6
:10118000fcff3a00000006008000780001017800b2
:101190003104e000fdff3a000000510000000600ad
:1011a0000001eb0000027800b041780081cf5100cf
:1011b00001003a00040178000304e000f9ff3a005e
:1011c0000200780000000600889fbe008a1f780099
:1011d00000047800c8009000680190000000eb0057
:1011e000828f50003c00390018007800220029004e
:1011f00002016000e20f51000700320001202000d0
:101200000000e0000100350001202400008c700087
:101210000080eb0030003700020026000200600072
:10122000820f500009003a0038009000808f500073
:10123000060039000800780049ff070080007800a8
:101240000080eb000100e00023003a001805780060
:1012500000c020000000650018003a00a8049000bb
:101260006002200008004000808f540013003a0004
:101270000020200042030700200498000000e00046
:1012800005003a0029049800490498008904e80000
:1012900039049800080037000a60a0000a0c7800a2
:1012a0004004980001202000808040003104980014
:1012b000400c9800500c98000c000700280090008b
:1012c0005004980038009000600498000000260048
:1012d000180c70000000eb004f0578004f04be00b2
:1012e0000000060080a1200062003700881f7800ff
:1012f000681821001804e00003003a00f9ff070015
:1013000020c0b300004c78004f04780000000600b5
:10131000889fbe00000478000800780010ff0700d6
:1013200080047800000420001800600002003200f1
:1013300028009000590207000000eb0020049800ec
:10134000384090000004e000050035000000fb007c
:1013500048fe07000000e000010032008084eb003e
:10136000181090000000e000080032008cfe07001a
:101370000000e000010032008084eb0018109000b3
:10138000460207000000eb0010149800000820003f
:1013900018006000150032000001eb006000b8008a
:1013a0000202d000230f210003024200940f140018
:1013b00005003a00000040008180480000804100a4
:1013c0000008eb000600370061004000e0804800a4
:1013d0000201e800e80f5000e08f5800f0ff3a00eb
:1013e000080078002d0207000e003700000c78007e
:1013f00000c0eb003044980060022000080040006c
:10140000200498004004980050049800400c980074
:1014100060049800500c9800700498007600440016
:10142000000c9800090078004f04be000000060080
:10143000881f78000004eb006140b800e2ff2f0035
:10144000f3ff2f00f005070002102100800041008b
:10145000110078000000e00001003200acff07003e
:101460000804e800e80f5400f3ff3a004f04780046
:1014700000000600010020000100e0000900320029
:10148000010080000100e000060032008100e90058
:10149000010088008100d0000200800082804000ae
:1014a0008008780000000600889fbe0000047800d5
:1014b0000100780082047800880178000901780032
:1014c0001100200027020700890f500001003200a0
:1014d0000004eb00080078004f04be000000060086
:1014e0000000fa00e88157004fb99700210a210057
:1014f00040a52000cc0007000080fa000000060094
:10150000889fbe00000478000203be0081047800ba
:101510000802780089017800120020000600be0051
:10152000f4040700890f5000010032000004eb00b2
:10153000080078004f04be00000006006800fa00b2
:10154000889fbe008a9fbe00800478000104780056
:1015500082057800030578008400780000f92f00e8
:101560000f004000e1040700d98f9f00fb8f9f0010
:101570000000eb00a09f9f00e88f9f009a84fb0073
:101580000904fb008904ea00cf4cde005002200071
:10159000800f54000d003200e18f54000b003a0020
:1015a000090178008a0078007f889700df8997001a
:1015b00003000100f08f9f000000e0009500320062
:1015c0002f9897000000e800a09f9f0009054500a4
:1015d00050022000800f5400040032000800e00098
:1015e000e6ff3a002f9897008b0037000000eb00d1
:1015f000809f9f00f0979f00e0979f00d0979f00eb
:10160000c0979f00b0979f00070037008115210009
:101610000100500000004000c11421008080400003
:101620004f98970011007000c09f9f000a04780037
:1016300008057800ba4478008900fb008015210075
:10164000830207000000e000f0ff3a00a1c2b300ef
:1016500081cf54000e003a008f8897000180e90086
:10166000808f9f0010007800b09f9f000000e00076
:1016700005003d000000ea00b09f9f004f989700d2
:101680000020a000c09f9f000804e8001000370061
:10169000b09f9f00880078000000eb000500370035
:1016a000f3ff2700830f500002003200ea00b90068
:1016b0000000410001047800880078003101fb003f
:1016c0000203b100e90f5100f5ff3600b09f9f0003
:1016d000e0c2b300984f1000020032000080eb001f
:1016e00019003700a0c2b300d84f100007003a001d
:1016f0008f8897000180e900808f9f00100078009c
:10170000909f9f000804e800100037000000eb00e5
:10171000909f9f008800780005003700f3ff2700a6
:10172000830f500002003200ea00b90000004100bf
:1017300001047800880078003101fb000203b10049
:10174000e90f5100f5ff3600909f9f009844780004
:101750008900fb00401421003d0207000000e0006a
:10176000020032000804e800010037008044eb006a
:10177000a97f9f0080c6b30080cf540006003a00c6
:1017800098cf140010003a0066405000a07f9f00e0
:101790000804e8000c003700c0c6b30080cf540036
:1017a00009003a0098cf140007003a006740400053
:1017b000d84f100002003a006e4050000100370080
:1017c00010c7b300a07f9f001801fb00c3fb2f00d0
:1017d0008f81410001f92f008f80400020f92f00f8
:1017e0000f004000150007000000e00009003a006b
:1017f000c1fb2f008f80400020f92f000f00400018
:10180000600307000000e000020035000805e80062
:101810005aff37000080eb004f05be004f04be00aa
:101820000080fa00000006000302780082017800c0
:101830000101780001a8200040ff3700889fbe000a
:101840008a9fbe00e4c6b300844f5100c40032003a
:1018500010003c006b425200844f510018003200cf
:1018600005003c0054c2b300844f5100fc0032001c
:1018700084c5b3000f00370044c6b300844f510045
:101880001500320065424200844f5100f7003a00d3
:101890001100370004c7b300844f5100e300320049
:1018a0005a00350065424200844f51005700320013
:1018b00063424200844f5100ec003a00530037006d
:1018c0001181e90082087800a00890008181410020
:1018d00092497800eb003700006a9000c5c6b3005b
:1018e000854f520007003a0091027800648252004e
:1018f000840878001402be004fabde008603780037
:101900001400370015c7b300854f520003003a009a
:10191000110478006802540005003700a5c6b30022
:10192000854f520006003a00910478006882540006
:10193000840878005403be004402be00050037004e
:101940001182e9008408780014027800cfa2de003a
:10195000612bb9000498be000690be00806890001c
:1019600088c6b30088cf50000d00320028c6b300ef
:1019700088cf500004003a000402fb00cfa2de0032
:10198000612bb9000800370048c7b30088cf50006a
:10199000030032006644440088cf500004003a003f
:1019a000cfa2de00612bb9000498be000690be00f5
:1019b0003002be002003be00a0089000e00f5200dd
:1019c000e08f5a00e00f5b00e08f5b0003003d00fa
:1019d00001824100d5c2b3000a00370030129000e6
:1019e0000418a3000300320001824100b5c2b30015
:1019f000040037000408a3005400320001824100b3
:101a000005c2b300054a78004e003700006a900016
:101a1000c5c6b300854f520008003a001105780092
:101a200064025500840878001404be006055b800b4
:101a30000802be000a03be001400370015c7b30039
:101a4000854f520003003a009104780068825400e8
:101a500005003700a5c6b300854f520006003a00c6
:101a60001105780068025500840878005403be0010
:101a70004402be00050037001182e90084087800a6
:101a8000140278008002eb006033b8000498be00b6
:101a90000690be008068900088c6b30088cf5000d2
:101aa0000d00320028c6b30088cf500004003a0071
:101ab0000482fb008002eb006033b80008003700ae
:101ac00048c7b30088cf500003003200664444008a
:101ad00088cf500004003a008002eb006033b80069
:101ae0000498be000690be00b01090000138a3001c
:101af000160032003002be002003be00e00f52008c
:101b0000e08f5a00e00f5b00e08f5b000f003200b7
:101b100081c7b300814f51000300320081c5b3007b
:101b2000814f510009003a00a00890000182410055
:101b300005c3b300054a78008100e8000182410036
:101b4000024a78008100e80021089800a00890006f
:101b50008181410073009800824078003e00370088
:101b600080699000c4c6b3001181e90084cf5100a0
:101b7000220032000a003c006442520084cf51002f
:101b80002500320004c2e80084cf51001300320067
:101b90006842520084cf51001e003a000a0037000c
:101ba00044c7b30084cf51001b003200664242009c
:101bb00084cf5100180032006942520084cf510096
:101bc00014003a000500370082087800920078007f
:101bd00020609000804878002c0037008208780050
:101be0009200780010129000cfa2de00612bb900a5
:101bf0008498be008690be002400370082087800da
:101c00009200780010119000cf91de008288be0013
:101c10001e0037001181e9008208780092007800e8
:101c20001010900080087800180037001181e9003a
:101c30008208780012027800cfa2de00612bb90082
:101c40000498be000690be00a0089000818141006b
:101c50007300980081c7b300130107000b00370021
:101c6000a00890008181410005003700a008900085
:101c7000818141000204e00001003a0052c2b30039
:101c8000824978008100e800210898000000eb00fc
:101c90004f05be004f04be00000006000000e0003b
:101ca0002f003200c0017800e38f51002c00360075
:101cb0000308a3002a003a00118c80000100e00014
:101cc00002003200810f5000040031001100980022
:101cd000108c8800160037008200780011019000f7
:101ce0000200e00002003200800f5100faff3900cc
:101cf0001102780084824000850f500018003900de
:101d0000808f520003003a008308420001007800ef
:101d1000070037000200e0000300320083014000aa
:101d2000830f51000e0039001200980090009800b7
:101d3000900090000100e000090032001001400016
:101d4000828f500006003a00021821000009eb00c3
:101d500010017800110841009100900011009800d6
:101d600000000600889fbe008a9fbe008c9fbe00b8
:101d70008e1f7800000678000104780002007800c9
:101d8000830478008881b900020778000e00e00023
:101d9000420032000800e000410032008e05780069
:101da000c900900069009000808f50000400390045
:101db0000900780004fd07000000e000290035005c
:101dc00000402000190060000a0032000b0178007a
:101dd000a10020000c007800930007008006780026
:101de0000d00e00006003200610516000a8546007d
:101df000040037000b0578008006eb000100370077
:101e00000b05780049009000e900900080805000a8
:101e10008a8f500002003100010578008006eb0037
:101e20000a0178008c007800d0fc07008a855500f4
:101e3000490090000a004000c00498000d00e00036
:101e4000040032000900780045fc07000000e000b3
:101e500004003a000b00e000020032000a064600cf
:101e6000cfff370000802000190060000200320020
:101e7000090078003afc070000c02000190060004b
:101e80000200320049009000e00498008b055700e2
:101e9000050009008885d800010037000000eb002c
:101ea0004f0778004f06be004f05be004f04be002e
:101eb00000000600889fbe0000047800018c8000ae
:101ec0000100e00002003200010078000d00370040
:101ed000118c80002018210004003700910f54005d
:101ee000250036000180e800910090000100e0002c
:101ef000faff3a0010003700920f54001e0036001f
:101f00000280e800100178000200e000faff3a00c9
:101f100011017800118c8000201821000400370086
:101f2000910f5400140036000180e80091009000e9
:101f3000828f5000faff3a00498c8000888f54004d
:101f40000100310088047800090078004c00070087
:101f50000000e00004003a00888f540005003200c1
:101f60008904d100f5ff3700091878004bff0700fe
:101f7000d2ff37000000eb004f04be000000060057
:101f8000881f7800630440000800a1008000eb0077
:101f9000800f540021003600e30f540001003e0082
:101fa0004800200008007800c2ff07008000eb0016
:101fb0000000e000190032009000780091017800e4
:101fc00064815100880f510003003100110190001d
:101fd00002087800070037000881400002087800f6
:101fe000910190001301980010017800110914006c
:101ff00088087800100178000000eb000200e00083
:1020000004003200920190000300e0000100320061
:102010000280e800008c88008180e80001007800e0
:102020004f0478000000060003003700b0cf100016
:10203000050032000201e900800178000200e000a2
:10204000faff3a00000005000300780000000600d7
:10205000020037000304e0000600320000017800af
:1020600002007800b041780081cf5100f9ff3a00ba
:10207000010037000001eb000200780000000600bc
:10208000800078000000eb000100e0000500340053
:10209000010078004bfb0700e10f400001003a000f
:1020a0000000eb0000000600fc874700889fbe0090
:1020b0008a9fbe008c9fbe008e1f780000067800ad
:1020c00080c5b30080cf50000a0032007740400046
:1020d00080cf50000a0032006940400080cf50009d
:1020e0000b0032003011210080bf9f00ae002000a5
:1020f0000a0037002210210082bf9f00060037002f
:102100003311210083bf9f008e00200003003700a1
:102110003411210084bf9f000e0120003c02be004c
:102120002c03be000605be000404be0040c6b3007a
:1021300080cf5000030032006540400080cf500047
:102140000b003a00e00f5200e08f5a00e00f5b00f6
:10215000e08f5b0006003d006000b8006011b80031
:1021600004045000858458000605590087855900ed
:10217000e80f57000400320040002000f00f570025
:102180003a003a000100370030002000e00f540010
:10219000e08f5c00e00f5d00e08f5d0004003a001e
:1021a0008c1090008d0120000100e000070032003b
:1021b0008e00e900888060008fba9700818042001d
:1021c00091407800f1ef9f007d01200080007800b1
:1021d0008100e900050033008b05d1000a85d3009a
:1021e0008984d3000884d300f9ff3700089ebe001d
:1021f0000a96be00130037008d06e9008e00e90044
:10220000848060000fb9970081004100114178007f
:1022100083fd2f008d81410082f7790080017800d5
:102220008301e900050033008783d1000683d300d2
:102230008582d3000482d300f9ff3700049ebe00dc
:102240000696be003c02be002c03be00e00f52000a
:10225000e08f5a00e00f5b00e08f5b0091003400dc
:102260000d00e000e4ff3c008e0037000c68900099
:1022700081c6b300814f50000b00320006003c00c5
:102280000004e00008003200e6c05000814f50001a
:1022900052003a0004003700c1c6b300814f50001d
:1022a0004e003a00230037000800e00004003a0026
:1022b0000c1090008d0120000000e00007003200ab
:1022c000050009000e84d8000fba970001004200f3
:1022d00010407800f0ef9f007d012000050009000c
:1022e0000e84d8000b003700050009000e04d8004a
:1022f0008d06e9008e81b900020454008fb8970062
:10230000088440009841780082fd2f000d014100b3
:1023100083777900000478000800e00002003200b2
:102320000d00e000f0ff3c00cfc4de00614db900bd
:1023300027003700e00f5400e08f5c0004003a00f3
:102340000c1090008d0120000000e0000800320019
:102350006171b9000800be00ccfa07000fba9700ff
:102360008000420091407800f1ef9f007d01200045
:102370006171b9000800be00b4fa07000c00370014
:102380006171b9000800be00100207008d06e90067
:1023900080f1b900020454008fba9700088442000b
:1023a0009841780082fd2f000d014100837779006c
:1023b0000004be00e00f5000e08f58000200320021
:1023c0000d00e000eeff3c004fcdde008a057800f6
:1023d000089ebe000a96be0032003700e00f54008f
:1023e000e08f5c00e00f5d00e08f5d0004003a00cc
:1023f0000c1090008d0120000000e0000a00320067
:102400006172b900612bb9000800be000a01be006c
:10241000a30207000fba97008000420091407800a5
:10242000f1ef9f007d0120006172b900612bb900be
:102430000800be000a01be00920207000e0037002d
:102440006172b900612bb9000800be000a01be002c
:10245000970207008d06e90080f2b90004045400d9
:102460008fba9700088442009842780084fd2f00bc
:102470000d02420085777a00009ebe000296be00e3
:102480003c04be002c05be00e00f5400e08f5c0051
:10249000e00f5d00e08f5d00020034000d00e00001
:1024a000e7ff3c00e80f570010003a003c10900096
:1024b0000038a3000d003200f78f560006003e00e2
:1024c00080fd2f000d004000ef40780000c3b300f6
:1024d00080cf50000500320002c3b30071fd2f0011
:1024e0008d8040008d06e90082f778007881160023
:1024f000420e98007c00900083fd2f008f814100e8
:102500008d80410019fb07004c0890008c10900052
:10251000810f500006003d0000805000300e9800f2
:102520003c1090000040a100301698000f003700ca
:102530000100e0000d003d00bc109000f480600040
:10254000f08f500009003a002c119000ac08900068
:10255000810051003c0990008280500000805000b2
:102560004240a90001003400300e98004f07780067
:102570004f06be004f05be004f04be00cf01b100a4
:10258000000006000400fa00889fbe008a9fbe007b
:102590008c1f78000004780001067800a8149000d1
:1025a00028089000808454003808900080845400eb
:1025b000480890008084540058089000808454009b
:1025c000680890008084540078089000808454004b
:1025d0000002220090bf9f0000032300a0bf9f00c5
:1025e000381090000028a30015003a000900e00010
:1025f00013003400090578008a057800e20f5500c1
:10260000010036002b002000c80190000b0178006b
:10261000ee805700680090000300010060049800fd
:102620000000e000aa003200181090000b004000eb
:10263000101498000b0555004240a900eeff3c0025
:10264000280990000200e0000c003400c80190004e
:102650008c0078006800900003000100600498007e
:102660008080eb000000e0009a003200981090009b
:10267000280890000080400010149800380d900049
:102680000a00e000110034008a057800e20f5500ce
:10269000010036002b002000c80190000b017800db
:1026a000ec8057006800900003000100600498006f
:1026b0000000e00086003200181090000b0040007f
:1026c000101498000b055500edff370008699000c5
:1026d000c808900050c6b300804f510008003a006f
:1026e0000100e00015003400580290000809900035
:1026f000980990006800900004000100070037006e
:102700000100e0000d003400c801900001017800d4
:10271000f800900068009000030001006004980039
:102720008080eb000000e0006a003200981090000a
:10273000480890000080400010149800580d900048
:102740000a00e000110034008a057800e20f55000d
:10275000010036002b002000c80190000b0178001a
:10276000ec805700680090000300010060049800ae
:102770000000e00056003200181090000b004000ee
:10278000101498000b055500edff37000869900004
:102790006808900051c6b300814f51000d003a0007
:1027a0000000e0001c00340078019000c808900090
:1027b000010141006111b800828fd2008381d200f3
:1027c000580290008000780068009000040001002a
:1027d000090037000000e0000f003400780190008d
:1027e000c808900081004100c801900000017800f5
:1027f0006800900003000100600498008080eb00f6
:102800000000e0003300320098109000680890004b
:102810000080400010149800780d90000a00e0003d
:10282000110034008a057800e20f550001003600df
:102830002b002000c80190000b017800ec805700ad
:102840006800900003000100600498000000e000b0
:102850001f003200181090000b0040001014980068
:102860000b055500edff3700381090008000eb009d
:102870000028a300170032000900e0001500340012
:1028800009057800e28f5400010036002a0020007c
:10289000c80190000a017800ee805700680090009f
:1028a00003000100600498000000e000080032000e
:1028b000181090000a004000101498008a845400f8
:1028c0004240a900eeff3c008000eb000100370011
:1028d0008080eb00010078004f0678004f05be00b5
:1028e0004f04be000080fa000000060001087800d6
:1028f00000000600e6874700889fbe008a9fbe0052
:102900008c9fbe008e1f780082bf9f000404780059
:102910008299b900f2b79f000200e000590032002e
:102920000fb997000200e000570032000006be0019
:102930007fb79700c800900068009000808f50001b
:1029400004003900080078001ffa07000000e000ca
:102950003b00350000402000180060000a003200f3
:102960008e017800a20020000c00be007c00070051
:102970000005be0000807500070032008c04550081
:102980008904e800050037008e0478000a00200062
:102990000b002000010037008e04780048019000f1
:1029a0006800900002005000890f500003003100c1
:1029b000800478000a0020000b0020006111b8009c
:1029c000828fd2008381d200090278000c00be0001
:1029d0003a0007000907570048009000090040002e
:1029e000400498000a857500040032000800780051
:1029f0005bf907000000e00011003a000e00e00063
:102a00000f0032006148b800808fd2008180d20070
:102a10000000780000f0a1000c01d0008001d0007f
:102a2000030641004220a80081864e004200a90012
:102a30004220ae004200a8000c86d300bdff370044
:102a400000802000180060000200320008007800ba
:102a500043f9070000c020001800600002003200a7
:102a600048009000600498007fb197000e07510065
:102a70000fb99700050009000287d800800178008f
:102a8000010037008001eb00030078004f07780059
:102a90004f06be004f05be004f04be006f00b100e0
:102aa0000000060000c0da000000060000c0da00e6
:102ab0000000060000c0da00000006003400f80044
:102ac0003200f8000203be0082027000850272002c
:102ad00002f0a6008301e800a301880000f0a60030
:102ae0008100e800910188001500b2000c0032005e
:102af000104978000402e90015003200610141002c
:102b0000020039003420ec0002002800610040007f
:102b1000f7ff39003220ec0000002800f4ff3700f6
:102b2000100978000482e9000900320062014100c6
:102b3000020039003420ec0002002800620040004e
:102b4000f7ff39003220ec0000002800f4ff3700c6
:102b50003200f9003400f9000601be000000060052
:102b60000300e00007003200950180009101880019
:102b700010427800950188000402fb00820f520089
:102b8000110032008301e900950180009101880065
:102b900010427800950188000404e000080032002b
:102ba000000278001000b00000026a004260af002e
:102bb00000f0a0000482d2000180b000e8ff3700de
:102bc000000020000100200000000600839f680034
:102bd0000100e00002003d0060001000e0801800ed
:102be0000300e00002003d0060011100e0811900d7
:102bf00096f807004f00e00002003b006000100064
:102c0000e080180000000600020ab900001bb900ad
:102c10000200b8008100420081004300000006006d
:102c2000889fbe008a9fbe0030044200b0844a00e4
:102c300030054b0090854b006000b1000898be0045
:102c40000a90be000440e10005c8e10006d0e100a2
:102c500007d8e10002003100680040001008e800d9
:102c60004f05be004f04be0000000600889fbe0056
:102c70008a9fbe003004be002005be000418540028
:102c800005985c0006185d0007985d0011002000a3
:102c90000440e10005c8e10006d0e10007d8e100ea
:102ca000010039008000eb00108810004f05be00c5
:102cb0004f04be00000006001200fa00889fbe000c
:102cc0008a9fbe008c9fbe00e0b79f00f1b79f00b7
:102cd00082bf9f0093bf9f000605be000404be0094
:102ce0000000eb00d0b79f00c0b79f00b0b79f00b7
:102cf000a0b79f0090b79f00000678005fb19700d3
:102d0000cfb09700820141003fb097000200e00081
:102d100004003d00370007007e805700c0ff070019
:102d200003003700330007007e805700cfff070005
:102d3000dfb697000d00e0000c0035006fb2970081
:102d4000ffb297000fbb97009fbb970010002000b9
:102d5000010020006011b800000272008182720040
:102d600002037300838373001b0007000c06e80056
:102d700001042000810f5600e0ff3a000d00e00042
:102d800004003d000802be000a03be007e8057001a
:102d9000a3ff07005fa897000000e00005003a00cd
:102da0001fb29700afb297003fb39700cfb3970021
:102db000090007006fb09700ffb097000fb99700a8
:102dc0009fb997004f06be004f05be004f04be00de
:102dd0000080fa0000000600010007000000060065
:102de000a4b79f00b5b79f00c6b79f00d7b79f0095
:102df000000006004f09de0082817100b3b79f001a
:102e00004f01de008180400082807000a1b79f00ea
:102e10008fb097004f09de000000400002007000f4
:102e200090b79f007fa897004f01de00818040008f
:102e30008280700081b79f000d0007004f3ade00ce
:102e40000000400004007000f0af9f000800070081
:102e50000402420085824a0006034b0087834b0030
:102e6000dfff07000802be000a03be0000000600e4
:102e70002fb29700bfb297004fb39700dfb3970010
:102e800000000600881f780018002000881f7800c6
:102e900089ff07008f87e9004f04780000000600d3
:102ea000801feb0084ff07008f87e9000000060009
:102eb000889fbe008a9fbe00e00f5000e08f580040
:102ec000e00f5900e08f59000c003d006044b8004d
:102ed0006055b8000000540081805c0002015d0074
:102ee00083815d00180020001500070008003d00e8
:102ef000180007000004eb00050037000004eb0099
:102f00000f00070002003d0012000700180020001b
:102f1000dcff07000800e000060032006022b80075
:102f20006033b8000000520081805a0002015b004b
:102f300083815b004f05be004f04be000000060009
:102f4000e00f5200e08f5a00e00f5b00e08f5b0063
:102f5000000006006044b8006055b8000402540048
:102f600085825c0006035d0087835d00000006002b
:102f7000889fbe008a9fbe008c1f7800e00f500023
:102f8000e08f5800e00f5900e08f59000d003d0020
:102f90006044b8006055b8000000540081805c00b7
:102fa00002015d0083815d001c0020000820e1001b
:102fb00009a8e1000ab0e1000bb8e1000d003d00f6
:102fc000080037000006eb00e00f5200e08f5a00c7
:102fd000e00f5b00e08f5b0006003d006044b8003e
:102fe0006055b8000402540085825c0006035d0051
:102ff00087835d00aaff07000c00e0000600320096
:103000006022b8006033b8000000520081805a008e
:1030100002015b0083815b004f0678004f05be0014
:083020004f04be000000060091
:020000040000fa
:103028003d3d00003d3d00003d3d00003d3d0000b0
:103038003d3d00003d3d00003d3d00003d3d0000a0
:103048003d3d00003d3d00003d3d00003d3d000090
:103058003d3d00003d3d00003d3d00003d3d000080
:103068003d3d00003d3d00003d3d00003d3d000070
:103078003d3d00003d200000004100006769000060
:103088006c650000537700006974000063680000f5
:1030980020440000656d00006f6e0000737400002e
:1030a80072610000746900006f6e000020770000f4
:1030b8006974000068200000647300005049000033
:1030c80043330000334300004b200000005400004d
:1030d800656d000070650000726100007475000085
:1030e80072650000203a00002025000064250000d9
:1030f8006425000064200000646500006772000019
:103108006565000020430000200a0000005600000a
:103118006f6c00007461000067650000203a0000d1
:1031280020250000642500006425000064250000b7
:1031380064200000562000000a0000003d3d000009
:103148003d3d00003d3d000020480000492d0000a5
:1031580046410000554c0000542000002121000089
:10316800212000003d3d00003d3d00003d3d0000a8
:10317800200000003d3d00003d3d00003d3d0000b9
:10318800204c00004f2d000046410000554c000027
:103198005420000021210000212000003d3d0000b6
:1031a8003d3d00003d3d0000200000003d3d000089
:1031b8003d3d00003d3d0000204100004c4c00001a
:1031c8002d460000415500004c540000202100000d
:1031d80021210000203d00003d3d00003d3d000054
:1031e8003d2000000000000054720000616e0000e5
:1031f800736d00006974000020740000657300009e
:10320800740a000000480000656c00006c6f000044
:10321800205700006f7200006c640000212000003d
:10322800256400000a000000021d00002e1d000099
:103238006e1d0000581d0000c61c0000e41c0000a4
:08324800a21d0000761c00002d
:020000040000fa
:103250000400fa001d050700401f200017090700a1
:10326000408129000cf70700108429000af70700a5
:103270004081290008f70700030037000000000024
:10328000010037000000000038d0bf000004e0005b
:10329000faff32003870ef00d8000700f500070091
:1032a0000f0107007204210012417800610421001f
:1032b0009140780045d0bf00540107008081800014
:1032c00040808800818180009081800000804000e3
:1032d00050808800508080000000e00002003a002a
:1032e00010002000508088003bd0bf000004e000a8
:1032f000090032005c29a900c072800064006000ef
:103300000000e000030032004006200040808800fa
:10331000010037000830ef005280800041808000bb
:10332000e02e20000102b800048fbe001e02be0085
:103330000500090042aad8008000eb00b080880098
:10334000c1808800b0808000c1808000790040008a
:10335000e0804800ce0add004200de0000807200fe
:10336000c208de00b0808800c1808800a081800093
:1033700040808800a1818000b081800000804000f2
:1033800050808800508080000000e00002003a0079
:1033900010002000508088003ed0bf000004e000f4
:1033a0000a0032008029a900c172800000022000ba
:1033b000008060000000e0000300320040062000b2
:1033c00040808800010037000830ef005280800004
:1033d00041808000204e20000102b800048fbe0012
:1033e0001e02be000500090042aad800d080880055
:1033f000d0808000d007b100d0808800d0808000cd
:103400000000e00001003d001a30ef00e080800085
:10341000e40f500004003e00e08080000000e8005f
:10342000e080880098ff37001c30ef00b0808000fb
:10343000c1808000420620000300200083f60700c0
:103440000040780004f0b700b0808000c1808000a8
:1034500042062000030020008cf60700a200200096
:103460000300200079f607000040780005f0b7005f
:10347000b0808000c1808000a200200003002000f6
:1034800082f607000040780006f0b70006d0bf00c3
:103490000081fb0005d0bf008080fb0004d0bf008e
:1034a0000080fb00821f7800811f7800801f780059
:1034b000b0862900801f780009f80700e8875700c8
:1034c000d1808000803e2000800278000500090045
:1034d0008500d8000040780003f0b700d18080005c
:1034e000803e200000017800050009008200d8001d
:1034f0008000fd0000017800b04721000090b90075
:10350000c388de004f90de0000805000004078004d
:1035100004f0b700d1808000b04721000089b900d5
:103520004399de004f88de00000051004206200073
:103530008280b90000805000716626000181b900c8
:10354000c298de004f80de0000805000004078000e
:1035500005f0b700d1808000706626000089b900b0
:103560004299de004f88de0000005100ea00b900f9
:10357000008050000040780006f0b70006d0bf0081
:103580008081fb0005d0bf000081fb0004d0bf009c
:103590008080fb0003d0bf000080fb00831f780009
:1035a000821f7800811f7800801f7800b088290072
:1035b000801f7800caf70700ea87570042d0bf0093
:1035c0000004e00002003200208a290032f60700e1
:1035d00043d0bf000004e00002003200e08b29006d
:1035e0002df6070044d0bf000004e00025ff3200a4
:1035f000a08d290028f6070023ff37000000fa00fd
:10360000a173800000402000008060000000e00006
:103610000300320010c0b30042f0b70001003700d1
:103620004270ef00a17380000080200000806000e5
:103630000000e0000300320010c0b30043f0b70008
:10364000010037004370ef00a173800000002100eb
:10365000008060000000e0000300320010c0b300f2
:1036600044f0b700010037004470ef000080fa001a
:10367000000006000000fa0042d0bf000004e00095
:1036800003003200200020001f0407000200370062
:103690000000eb001c04070043d0bf000004e00062
:1036a0000300320020002000410407000200370020
:1036b0000000eb003e04070044d0bf000004e0001f
:1036c00003003200200020006304070002003700de
:1036d0000000eb00600407000080fa000000060014
:1036e0000000fa00a1738000000820000080600044
:1036f0000000e0000a003a0021d0bf00e24f500075
:103700000300360010c0b30022f0b7000d003700f0
:1037100021d0bf000040e80021f0b70009003700c9
:1037200022d0bf000004e000050032002270ef004c
:1037300010c0b30045f0b7004670ef004770ef00cf
:103740002170ef00a1738000001020000080600055
:103750000000e0000a003a0023d0bf00e24f500012
:103760000300360010c0b30024f0b7000d0037008e
:1037700023d0bf000040e80023f0b7000900370065
:1037800024d0bf000004e000050032002470ef00e8
:1037900010c0b30046f0b7004570ef004770ef006f
:1037a0002370ef00a17380000020200000806000e3
:1037b0000000e0000a003a0025d0bf00e24f5000b0
:1037c0000300360010c0b30026f0b7000d0037002c
:1037d00025d0bf000040e80025f0b7000900370001
:1037e00026d0bf000004e000050032002670ef0084
:1037f0004670ef004570ef0010c0b30047f0b7000f
:103800002570ef000080fa00000006000400fa00b6
:10381000004f780011479800224798001e4078001a
:103820000004e0000c0032001ed0bf00ea4f500040
:103830000200360031a3a900090037001ed0bf00e6
:103840000040e8001ef0b7005acea80031a3a8003f
:103850003183a800020037001e70ef005acea90085
:103860001e4090000004e0000c0032001fd0bf009a
:10387000ea4f5000020036003183a90009003700ea
:103880001fd0bf000040e8001ff0b7005aeea800ac
:1038900031a3a8003183a800020037001f70ef0099
:1038a0005aeea9002e4090000004e0000c00320007
:1038b00020d0bf00e34f50000300360031a3a90021
:1038c0003183a9000700370020d0bf000040e80086
:1038d00020f0b7005acea9005aeea9000100370027
:1038e0002070ef000080fa00000006000000fa00df
:1038f0002188a9002168a90000082000c0118800c3
:103900003a22ef003c22ef0020022000f011880054
:10391000b0a22000001288004222ef004c22ef00eb
:103920004e22ef005022ef005222ef005422ef000f
:103930005622ef005822ef005a22ef005c22ef00df
:10394000e015210090828800e01521008082880027
:103950007016210070828800701621006082880035
:103960005470ef00e0cd210008000700c0cf210017
:10397000150007002168a80039e2a80038a2a800b5
:103980003882a8000080fa00000006000200fa0059
:10399000000f78001e0078000000e00003003a00ed
:1039a000e0cd2100b0828800020037009e00780040
:1039b000b18288000080fa00000006000000fa00d2
:1039c0000080fa00000006000200fa00000f7800f4
:1039d0001e0078000000e00003003a00c0cf210084
:1039e000c0828800020037009e007800c1828800f3
:1039f0000080fa00000006000000fa000080fa00d3
:103a0000000006000200fa000040eb00004f7800c2
:103a1000000000007182800060828000808f500072
:103a2000fcff320070828000104f780070828000ae
:103a30000000e80070828800718280000017210079
:103a4000808f500002003a007016210070828800ba
:103a50001e4078000080fa00000006000200fa0014
:103a6000004f7800000000001c0007000004a200c6
:103a70000004e000fcff3a00808280001e487800cd
:103a8000808280000000e8008082880081828000bf
:103a900070162100808f500002003a00e0152100ce
:103aa000808288002188a8000080fa0000000600bb
:103ab0000000fa007182800060828000008068004f
:103ac00000f0a7000000ea000000ea004f00de005e
:103ad000004078000080fa00000006000400fa00b0
:103ae0009182800011079800818280001e00900062
:103af000808f5000060031009e0090008082800080
:103b0000008050000000e900000f78000500370039
:103b10009e0090008082800000805000680040007d
:103b2000000f78001e00780000f0a7000000ea00f7
:103b30000000ea004f00de00004078000080fa003c
:103b4000000006000000fa00818280009082800060
:103b5000808f500009003a00e11180000008200029
:103b60000080600000f0a7000000ea000000ea000a
:103b70004f00de0000407800010037000040eb00fd
:103b80000080fa00000006000400fa006182800054
:103b900011079800708280009e009000808f500076
:103ba000060031009e00900070828000008050006e
:103bb00069004000000f7800040037009e0090006c
:103bc0007082800000805000000f7800f00f20000d
:103bd0009e007800808f50000200360000c0eb008d
:103be000020037001e007800004078000080fa00d4
:103bf000000006000400fa0091828000110798007e
:103c0000818280001e009000808f500006003100ed
:103c10009e00900080828000008050000000e9003b
:103c2000000f7800050037009e0090008082800021
:103c30000080500068004000000f7800f00f200066
:103c40009e007800808f50000200360000c0eb001c
:103c5000020037001e007800004078000080fa0063
:103c6000000006000800fa002007980031079800bd
:103c7000c5ff07000080fb00000f78003e009000a9
:103c80009e0f500002003100be009000010f78002e
:103c90000000eb00100798000900370059ff0700eb
:103ca000ae009000804878002e0090000000e800f0
:103cb000200798001e0090000000e8001007980000
:103cc0001e0090009e0f5000f4ff39001e00780087
:103cd0000080fa00000006000800fa0020079800a3
:103ce00031079800c3ff07000080fb00000f780039
:103cf0003e0090009e0f500002003100be00900078
:103d0000010f78000000eb00100798000900370051
:103d10002e00900010407800ae0090008100e80076
:103d2000210798004dff07001e0090000000e800ea
:103d3000100798001e0090009e0f5000f4ff3900fd
:103d40001e0078000080fa00000006000400fa005f
:103d50000000eb00000f78008bff07002047980061
:103d6000a4ff0700304798002e4090000080fb0021
:103d70000000e00003003200e90f500003003200b1
:103d8000040037001e20a000040037001e00a00021
:103d9000020037001e10a000000000003e4090000e
:103da0000080fb000000e00003003200e90f50003b
:103db00003003200040037001e30a000020037006c
:103dc0001e40a000000000001e0078000080fa00e5
:103dd000000006000400fa001007980071828000bd
:103de0001e009000008f4000020037009e00780007
:103df000698f5000001721009e007800808f5000ce
:103e0000faff3e001e007800104078000080fa00a3
:103e1000000006000000fa005bff07000080fb00c6
:103e20000000e9004f00de00004078000080fa004a
:103e3000000006000000fa006eff07000080fb0093
:103e40000000e9004f00de00004078000080fa002a
:103e5000000006000400fa00f01180008000eb0072
:103e6000008fbe001e00be00c001dd000200200069
:103e7000e01180008000eb00000071008180710083
:103e80000080fa00000006000000fa0059ff070059
:103e90000004e000100032009182800080828000e7
:103ea000808f5000060036009082800080007800ed
:103eb00080828000008050000000e9000700370089
:103ec0009082800080007800808280000080500016
:103ed00068004000010037000000eb000080fa009d
:103ee000000006000000fa0027ff07000004e000c1
:103ef000100032007182800060828000808f50004c
:103f000006003600708280008000780060828000a9
:103f1000008050000000e900070037007082800038
:103f200080007800608280000080500068004000bf
:103f3000010037000000eb000080fa0000000600de
:103f40000000fa0039e2a80038a2a8003882a800d0
:103f50000080fa00000006000000fa0039e2a90023
:103f600038a2a9003882a9000080fa0000000600eb
:103f70000000fa0030002000001888000223ef0043
:103f80000423ef000623ef000823ef0000012000c8
:103f9000501888000c23ef000e23ef001023ef00d1
:103fa0001223ef001423ef001623ef001823ef0075
:103fb0001a23ef001c23ef001e23ef002023ef0045
:103fc0002223ef002423ef002623ef002823ef0015
:103fd0002c23ef006223ef00ce23ef002e23ef000f
:103fe0006423ef00d023ef003023ef006623ef00bf
:103ff000d223ef00c000200090198800c0002000ec
:10400000401b8800c0002000a01e88003423ef0061
:1040100090102000501b880080002000b01e8800f7
:104020003623ef006c23ef00d823ef003823ef0096
:104030006e23ef00da23ef003a23ef007023ef0046
:10404000dc23ef003c23ef007223ef00de23ef00c0
:104050003e23ef007423ef00e023ef004023ef0046
:104060007623ef00e223ef004223ef007823ef00f6
:10407000e423ef004423ef007a23ef00e623ef0070
:104080004623ef007c23ef00e823ef004823ef00f6
:104090007e23ef00ea23ef004a23ef008023ef00a6
:1040a000ec23ef004c23ef008223ef00ee23ef0020
:1040b000204e2000701a8800801a2600201c8800dc
:1040c00030632000801f88005023ef008623ef001c
:1040d000f223ef0070382100901a8800f0342c0091
:1040e000401c880000e02300a01f88005423ef003c
:1040f0008a23ef00f623ef005623ef008c23ef0016
:10410000f823ef005823ef008e23ef00fa23ef008f
:10411000d0072000d01a8800d0072000801c88001b
:10412000fc23ef00d0072000e01a8800d007200011
:10413000901c8800fe23ef00000000001e05070011
:104140000004a2000004e000fcff3a008000280008
:104150005019880080002800001b8800800028007b
:10416000601e88000080fa00000006000000fa00cf
:104170000080fa00000006000000fa0040408000c5
:10418000680060000000e00002003200f7ff070056
:104190000868a9000080fa00000006000000fa008c
:1041a0000080fa00000006000000fa004040800095
:1041b000700060000000e00002003200f7ff07001e
:1041c0000888a9000080fa00000006000000fa003c
:1041d0000080fa00000006000000fa004140800064
:1041e00000042000008060000000e00002003200b7
:1041f000f6ff070008c8a9000080fa0000000600ca
:104200000000fa000080fa00000006000000fa003a
:10421000a140800000202000008060000000e0003d
:1042200002003200f6ff07001528a9000080fa00fe
:10423000000006000000fa000080fa0000000600fe
:104240000000fa00a14080000040200000806000d3
:104250000000e00002003200f6ff07001548a90048
:104260000080fa00000006000000fa000080fa005a
:10427000000006000000fa00a1408000008020003d
:10428000008060000000e00002003200f6ff07003e
:104290001568a9000080fa00000006000000fa007e
:1042a0000080fa00000006000000fa00a140800033
:1042b00000002100008060000000e00002003200e9
:1042c000f6ff07001588a9000080fa00000006002c
:1042d0000000fa000080fa00000006000000fa006a
:1042e000a140800000002200008060000000e0008b
:1042f00002003200f6ff070015a8a9000080fa00ae
:10430000000006000000fa000080fa00000006002d
:104310000000fa00a140800000002400008060003e
:104320000000e00002003200f6ff070015c8a900f7
:104330000080fa00000006000000fa00002bef00e9
:104340000006200010588800042bef00062bef0019
:10435000082bef000a2bef000c2bef000e2bef00c9
:10436000102bef00122bef00142bef00162bef0099
:10437000202bef000008200010598800382bef0098
:10438000402bef00482bef00502bef003a2bef00b3
:10439000422bef004a2bef00522bef003c2bef009b
:1043a000442bef004c2bef00542bef003e2bef0083
:1043b000462bef004e2bef00562bef000040200065
:1043c000505b880000402000705b880000402000a7
:1043d000905b880000402000b05b8800a02bef00bd
:1043e000a42bef00a82bef00ac2bef00d02bef009d
:1043f000d22bef00d42bef00d82bef0000302000a1
:10440000b05e880000302000d05e8800f02bef0006
:10441000f22bef00022cef00602822003e00070084
:10442000402b2200940007000e48a9002e48a80047
:104430001160800000f02000010070001060880012
:1044400001eba80026000700802bef00822bef0075
:10445000842bef00862bef00882bef008a2bef00d8
:104460008c2bef008e2bef00902bef00922bef00a8
:10447000942bef0000602000b05c8800982bef00c8
:104480000080fa00000006000000fa00000ca800fe
:10449000000000000160800000102000008060002b
:1044a0000000e000fbff32000a0ba8000080fa00c9
:1044b000000006000000fa00002ca8000000000028
:1044c0000160800000202000008060000000e0000b
:1044d000fbff32000a2ba8000080fa000000060053
:1044e0000000fa0000eca80000000000016080005d
:1044f00000002800008060000000e000fbff3200a8
:104500000aeba8000080fa00000006000000fa0094
:104510000080fa00000006000200fa00000f780098
:104520001e007800708388000080fa0000000600fa
:104530000000fa0051408000004020000080600030
:104540000000e00006003200708380000000e00000
:104550000200320070838000000001000b48a900b7
:104560000080fa00000006000e00fa0040079800e4
:104570000000eb00000f78000000eb00100798002f
:104580000000eb00200798000000eb0030079800c7
:104590004e009000214e20000100b8004609dd00c9
:1045a0004a00de0000007100ca08de0080007800ca
:1045b00070382100008f4000f07022009e007800cb
:1045c000808f500002003600f0702200000f78004b
:1045d000603821009e007800808f500002003e006d
:1045e00070382100000f78001e0078000000d10014
:1045f00010079800500020009e027800002ab800a2
:104600005407980065079800420620005e0290005b
:10461000ee0290000500090042aad8002007980089
:104620009e027800951a88009e009000711a8800fa
:104630002e019000d21a8800ae019000e31a880083
:104640002e63a8004e00900091f620000100b800f3
:10465000460add004a00de0000007200ca08de00e3
:1046600030079800be029000851f8800d063a80024
:104670000080fa00000006000200fa00000f780037
:104680001e007800808388000080fa000000060089
:104690000200fa00000f780021028000200f2000a5
:1046a000008060001e007000200288000080fa0078
:1046b000000006000000fa00c3e8a80000000000a7
:1046c000000000000080fa00000006000000fa0070
:1046d0004103070082030700c303070087000700a8
:1046e000a501070081fc070013ff070020fe07005b
:1046f000b6020700efff070000022000e4ff0700fa
:104700000080fa00000006000200fa00000f7800a6
:104710001e007800e10f500008003200e10f500049
:1047200003003900e20f5000070032001b00370081
:1047300076cea9004a70ef001b00370076cea800a5
:104740004a70ef00180037004ad0bf00e44f500015
:104750000e003600b073800066800a000000000082
:104760000004a200614060000080fb006100600066
:104770004600dd00b17380000160a10001007000ff
:10478000b07388004a70ef00070037004ad0bf00be
:104790000040e8004af0b7000300370076cea900d9
:1047a0004a70ef00000000000080fa0000000600e0
:1047b0000200fa00000f78001e007800e10f5000a0
:1047c00008003200e10f500003003900e20f5000f2
:1047d000070032001b00370076aea9004970ef00d9
:1047e0001b00370076aea8004970ef0018003700b4
:1047f00049d0bf00e44f50000e003600b073800077
:1048000055800a00000000000004a2006140600022
:104810000080fb00610060004500dd00b173800096
:104820000150a10001007000b07388004970ef00d2
:104830000700370049d0bf000040e80049f0b7004a
:104840000300370076aea9004970ef0000000000b9
:104850000080fa00000006000200fa00000f780055
:104860001e007800e10f500008003200e10f5000f8
:1048700003003900e20f5000070032001a00370031
:1048800077eea9004870ef001a00370077eea80015
:104890004870ef001700370048d0bf00e44f5000c9
:1048a0000d003600b0738000ff800a000000000099
:1048b0000004a200614060000080fb004f00dd00aa
:1048c000b173800001f0a10001007000b073880096
:1048d0004870ef000700370048d0bf000040e800f4
:1048e00048f0b7000300370077eea9004870ef00ea
:1048f000000000000080fa00000006000000fa003e
:1049000000012000804a8800814a800000ff2f00bb
:10491000008060000000a000804a88005229ef005b
:104920005429ef005629ef005a29ef005c29ef00c7
:104930006029ef006229ef006429ef006629ef008b
:104940006829ef006c29ef007029ef007229ef0051
:1049500051e9a80000c8a90020c8a80000e8a900e3
:1049600020e8a8000080fa00000006000000fa001d
:1049700051e9a8000080fa00000006000000fa00db
:1049800051e9a9000080fa00000006000000fa00ca
:104990003c30ef003bd0bf000004e00005003200d7
:1049a00010002000b08388006029ef006229ef002a
:1049b0003b70ef00b0838000e20f50001400320023
:1049c000e20f500003003e00e10f500006003200ed
:1049d00037003700e30f500017003200e40f50009b
:1049e0001f0032003200370036000700d0828800f6
:1049f000814a800000ff2f00008060000000a000be
:104a0000804a880020002000b083880028003700fa
:104a10002c000700e0828800814a800000ff2f0000
:104a2000008060000010a000804a88003000200054
:104a3000b08388001e00370022000700f082880043
:104a4000814a800000ff2f00008060000000a0006d
:104a5000804a880040002000b0838800140037009e
:104a60001800070000838800814a800000ff2f00a3
:104a7000008060000010a000804a88001000200024
:104a8000b08388006029ef006229ef00f182800086
:104a9000e0828000008050008081880001838000d7
:104aa000f0828000008050009081880000000000ab
:104ab0000080fa00000006000000fa000080fa0002
:104ac000000006000000fa00804b80000080fa0021
:104ad000000006000000fa00e04a800011800a0091
:104ae000000000000080fb0000f0a7000000ea00ca
:104af0000000ea004f00de00004078000080fa006d
:104b0000000006000000fa00e04a8000610060003a
:104b100000f0a7000000ea000000e9004f00de00fe
:104b2000004078000080fa00000006000000fa0053
:0c4b30005c29a9000080fa0000000600cb
:020000040000fa
:104b3c0070110000100000008000000072100000d6
:104b4c000200000082000000f89800002411000010
:104b5c002000000080000000741000000200000023
:104b6c0082000000ffff0000841100000200000022
:104b7c00800000006a1000000400000080000000ab
:104b8c002810000024000000800000006e100000bf
:104b9c0004000000800000007610000002000000fd
:104bac0082000000010000005a1000000800000004
:104bbc00800000005e110000120000008000000068
:104bcc004c1000000e000000800000007810000067
:104bdc0002000000820000000100000062100000d2
:104bec0008000000800000000010000028000000f9
:104bfc00800000007a100000880000008200000095
:104c0c000100000000a01000a110a00010a01000d6
:104c1c00a010a00010901000000000000000000088
:104c2c000000000000000000000000000000000078
:104c3c0000000000000208000101c80010c91000ab
:104c4c00c810c80010c81000c810b8001000000030
:104c5c000000000000000000000000000000000048
:104c6c00000000000000000000000200080202002a
:104c7c00f010f10010f01000f010f00010f0100027
:104c8c00e010000000000000000000000000000028
:104c9c000000000000000000000000000000000008
:104cac007a10a20010ca10000000000000000000e2
:104cbc00000000000000000086110000020000004f
:104ccc0080000000441100001a0000008200000067
:104cdc00686a6c00747a4c0000000100000200004d
:104cec000400080000100000000020002b2d230001
:104cfc00300000008811000002000000820000005b
:104d0c00040000008011000004000000800000007e
:104d1c00021100002200000082000000303132003d
:104d2c0033343500363738003941420043444500ae
:104d3c004600300031323300343536003738390014
:104d4c006162630064656600000000008a11000067
:104d5c000200000082000000010000008c11000025
:0c4d6c00020000008000000000000000b9
:020000040000fa
:104d78000000fa0010012000a04b88007629ef00ff
:104d88007829ef007a29ef007e29ef008029ef00cb
:104d98008429ef008629ef008829ef008a29ef008f
:104da8008c29ef009029ef009429ef009629ef0055
:104db80075e9a80002e8a90022e8a8000308a900ec
:104dc8002308a8000080fa00000006000000fa008e
:104dd80075e9a8000080fa00000006000000fa004b
:104de80075e9a9000080fa00000006000000fa003a
:104df8004030ef003ed0bf000004e0000500320064
:104e080010002000c08388008429ef008629ef0065
:104e18003e70ef00c0838000e20f500014003200a3
:104e2800e20f500003003e00e10f50000600320080
:104e380037003700e30f500017003200e40f50002e
:104e48001f00320032003700360007001083880048
:104e5800a14b800000ff2f00008060000000a00030
:104e6800a04b880020002000c0838800280037005d
:104e78002c00070020838800a14b800000ff2f0032
:104e8800008060000010a000a04b880030002000c7
:104e9800c08388001e003700220007003083880086
:104ea800a14b800000ff2f00008060000000a000e0
:104eb800a04b880040002000c08388001400370001
:104ec8001800070040838800a14b800000ff2f00d6
:104ed800008060000010a000a04b88001000200097
:104ee800c08388008429ef008629ef003183800081
:104ef8002083800000805000a081880041838000ca
:104f08003083800000805000b081880000000000dd
:104f18000080fa00000006000000fa000080fa0095
:104f2800000006000000fa00a04c80000080fa0093
:104f3800000006000000fa00004c800011800a0002
:104f4800000000000080fb0000f0a7000000ea005d
:104f58000000ea004f00de00004078000080fa0000
:104f6800000006000000fa00004c800061006000ac
:104f780000f0a7000000ea000000e9004f00de0092
:104f8800004078000080fa00000006000000fa00e7
:104f98008029a9000080fa00000006000000fa003d
:104fa800007c80000080fa00000006000200fa0081
:104fb800faff0700000f78001e00780024000700a1
:104fc8000004e00002003200000028007100070021
:104fd8001e0078002a0007000004e00002003200ea
:104fe800000024006b0007001e0078003200070054
:104ff8000004e000020032000020200065000700e5
:105008001e0078003a0007000004e00002003200a9
:10501800000820005f0007001e007800420007001b
:105028000004e000020032000004200059000700dc
:105038001e0078004a0007000004e0000200320069
:1050480000012000530007000080fa00000006005d
:105058000400fa00100798000040eb00004f7800a9
:105068001e0090000000e00002003d0010c0b300e8
:10507800004f78001e4078000080fa00000006000b
:105088000400fa00100798000040eb00004f780079
:105098009e00900000002400008060000000e000f6
:1050a8000200320010c0b300004f78001e407800a4
:1050b8000080fa00000006000400fa0010079800bb
:1050c8000040eb00004f78009e0090000020200078
:1050d800008060000000e0000200320010c0b30051
:1050e800004f78001e4078000080fa00000006009b
:1050f8000400fa00100798000040eb00004f780009
:105108009e00900000082000008060000000e00081
:105118000200320010c0b300004f78001e40780033
:105128000080fa00000006000400fa00100798004a
:105138000040eb00004f78009e0090000004200023
:10514800008060000000e0000200320010c0b300e0
:10515800004f78001e4078000080fa00000006002a
:105168000400fa00100798000040eb00004f780098
:105178001e009000700060000000e0000200320095
:1051880010c0b300004f78001e4078000080fa007d
:10519800000006000200fa00000f78009e80ea0076
:1051a800007c800000806000007c88000080fa009d
:1051b800000006000000fa00802fef000080fa00cf
:1051c800000006000000fa000421ef00300d230063
:1051d80040088800000128000008880050838000eb
:1051e8000000e00002003a00e09322004b000700b4
:1051f8000028a9002028a800401821008040eb00c2
:10520800014878000080fa00000006000200fa0059
:10521800000f78009e00780041088800401821009f
:105228008040eb00014878000080fa00000006008a
:105238000000fa00400880000080fa000000060024
:105248000200fa00000f78009e007800210888000c
:10525800401821008040eb00014878000080fa00e7
:10526800000006000000fa00200880000080fa0014
:10527800000006000000fa0061838000300620006c
:10528800808f500004003c00608380000000e8002c
:1052980060838800030037006c30ef0010c0b30053
:1052a80038f0b700e1818000b0122000808f5000f4
:1052b800070036003bd0bf000004a2000004e00055
:1052c8000300320010c0b3003bf0b7000300370002
:1052d800e08180000000e800e08188000182800011
:1052e800b0122000808f5000070036003ed0bf006b
:1052f8000004a2000004e0000300320010c0b30064
:105308003ef0b70003003700008280000000e8008c
:10531800008288000080fa00000006000200fa00ff
:10532800000f78002028a9009e007800518388008b
:105338002028a8000080fa00000006000000fa00fb
:10534800401821008040eb00014878002028a80080
:1053580001e1a8000080fa00000006000000fa0041
:1053680001e1a9002028a9000080fa000000060039
:105378000200fa0040182100104f78001e40780003
:105388000004e00003003200401821008040eb00d8
:10539800014878001e4078000080fa0000000600ee
:1053a8000000fa0050182100104078000080fb002f
:1053b8000080fa00000006000000fa0050182100e2
:1053c8008040eb00014878000080fa0000000600e9
:1053d8000000fa00062eef00222eef003e2eef000e
:1053e8005a2eef00762eef00f00120001070880092
:1053f800d0ff2000f07088000080eb00d07188009a
:10540800c0f22f00b0728800f0f82700907388006f
:105418000c2eef00282eef00442eef00602eef0038
:105428007c2eef000a2eef00262eef00422eef0012
